{
  "address": "0x3a8F4eA15d7FCf5dC3036c36286ea85F73bF14A9",
  "abi": [
    {
      "inputs": [
        {
          "internalType": "address",
          "name": "target",
          "type": "address"
        }
      ],
      "name": "AddressEmptyCode",
      "type": "error"
    },
    {
      "inputs": [
        {
          "internalType": "address",
          "name": "account",
          "type": "address"
        }
      ],
      "name": "AddressInsufficientBalance",
      "type": "error"
    },
    {
      "inputs": [],
      "name": "FailedInnerCall",
      "type": "error"
    },
    {
      "inputs": [],
      "name": "InvalidInitialization",
      "type": "error"
    },
    {
      "inputs": [],
      "name": "NotAvailable",
      "type": "error"
    },
    {
      "inputs": [],
      "name": "NotInitializing",
      "type": "error"
    },
    {
      "inputs": [
        {
          "internalType": "address",
          "name": "owner",
          "type": "address"
        }
      ],
      "name": "OwnableInvalidOwner",
      "type": "error"
    },
    {
      "inputs": [
        {
          "internalType": "address",
          "name": "account",
          "type": "address"
        }
      ],
      "name": "OwnableUnauthorizedAccount",
      "type": "error"
    },
    {
      "inputs": [],
      "name": "ReentrancyGuardReentrantCall",
      "type": "error"
    },
    {
      "inputs": [
        {
          "internalType": "address",
          "name": "token",
          "type": "address"
        }
      ],
      "name": "SafeERC20FailedOperation",
      "type": "error"
    },
    {
      "inputs": [],
      "name": "TooSmallAmount",
      "type": "error"
    },
    {
      "anonymous": false,
      "inputs": [
        {
          "indexed": false,
          "internalType": "uint64",
          "name": "version",
          "type": "uint64"
        }
      ],
      "name": "Initialized",
      "type": "event"
    },
    {
      "anonymous": false,
      "inputs": [
        {
          "indexed": true,
          "internalType": "address",
          "name": "user",
          "type": "address"
        },
        {
          "indexed": false,
          "internalType": "uint256",
          "name": "amount",
          "type": "uint256"
        }
      ],
      "name": "InvestUpdated",
      "type": "event"
    },
    {
      "anonymous": false,
      "inputs": [
        {
          "indexed": true,
          "internalType": "address",
          "name": "previousOwner",
          "type": "address"
        },
        {
          "indexed": true,
          "internalType": "address",
          "name": "newOwner",
          "type": "address"
        }
      ],
      "name": "OwnershipTransferred",
      "type": "event"
    },
    {
      "anonymous": false,
      "inputs": [
        {
          "indexed": true,
          "internalType": "address",
          "name": "user",
          "type": "address"
        },
        {
          "indexed": false,
          "internalType": "uint256",
          "name": "amount",
          "type": "uint256"
        }
      ],
      "name": "RewardClaimed",
      "type": "event"
    },
    {
      "inputs": [],
      "name": "WHITELIST_THRESOLD",
      "outputs": [
        {
          "internalType": "uint256",
          "name": "",
          "type": "uint256"
        }
      ],
      "stateMutability": "view",
      "type": "function"
    },
    {
      "inputs": [],
      "name": "claimReward",
      "outputs": [],
      "stateMutability": "nonpayable",
      "type": "function"
    },
    {
      "inputs": [
        {
          "internalType": "uint256",
          "name": "_amount",
          "type": "uint256"
        }
      ],
      "name": "deposit",
      "outputs": [],
      "stateMutability": "nonpayable",
      "type": "function"
    },
    {
      "inputs": [
        {
          "internalType": "address",
          "name": "_user",
          "type": "address"
        }
      ],
      "name": "getUserData",
      "outputs": [
        {
          "internalType": "uint256",
          "name": "invested",
          "type": "uint256"
        },
        {
          "internalType": "uint256",
          "name": "validInvest",
          "type": "uint256"
        },
        {
          "internalType": "uint256",
          "name": "reward",
          "type": "uint256"
        },
        {
          "internalType": "uint256",
          "name": "claimableReward",
          "type": "uint256"
        },
        {
          "internalType": "bool",
          "name": "whitelisted",
          "type": "bool"
        }
      ],
      "stateMutability": "view",
      "type": "function"
    },
    {
      "inputs": [
        {
          "internalType": "contract IERC20",
          "name": "_token",
          "type": "address"
        },
        {
          "internalType": "address",
          "name": "_owner",
          "type": "address"
        },
        {
          "internalType": "uint256",
          "name": "_minimumAmount",
          "type": "uint256"
        }
      ],
      "name": "initialize",
      "outputs": [],
      "stateMutability": "nonpayable",
      "type": "function"
    },
    {
      "inputs": [
        {
          "internalType": "address",
          "name": "_to",
          "type": "address"
        },
        {
          "internalType": "uint256",
          "name": "_amount",
          "type": "uint256"
        }
      ],
      "name": "invest",
      "outputs": [],
      "stateMutability": "nonpayable",
      "type": "function"
    },
    {
      "inputs": [
        {
          "internalType": "uint256",
          "name": "_amount",
          "type": "uint256"
        }
      ],
      "name": "investReturn",
      "outputs": [],
      "stateMutability": "nonpayable",
      "type": "function"
    },
    {
      "inputs": [],
      "name": "owner",
      "outputs": [
        {
          "internalType": "address",
          "name": "",
          "type": "address"
        }
      ],
      "stateMutability": "view",
      "type": "function"
    },
    {
      "inputs": [],
      "name": "renounceOwnership",
      "outputs": [],
      "stateMutability": "nonpayable",
      "type": "function"
    },
    {
      "inputs": [
        {
          "internalType": "address",
          "name": "newOwner",
          "type": "address"
        }
      ],
      "name": "transferOwnership",
      "outputs": [],
      "stateMutability": "nonpayable",
      "type": "function"
    },
    {
      "inputs": [
        {
          "internalType": "uint256",
          "name": "_amount",
          "type": "uint256"
        }
      ],
      "name": "withdraw",
      "outputs": [],
      "stateMutability": "nonpayable",
      "type": "function"
    }
  ],
  "transactionHash": "0x6cd5a6f235210ca88690b74ca3e2a7ec00cacf0a6b17d1681b0bb0ee5302a75d",
  "args": [],
  "numDeployments": 1,
  "solcInputHash": "24dc049e9a10e184e60e68c941ee7e48",
  "bytecode": "0x608060405234801561001057600080fd5b50610ea7806100206000396000f3fe608060405234801561001057600080fd5b50600436106100995760003560e01c80631794bb3c1461009e5780632c58b04d146100b35780632e1a7d4d146100c657806330ff3776146100d9578063715018a6146100fd5780638da5cb5b14610105578063b6b55f251461011a578063b88a802f1461012d578063b9b8c24614610135578063f2fde38b14610148578063ffc9896b1461015b575b600080fd5b6100b16100ac366004610cf4565b610198565b005b6100b16100c1366004610d35565b6102dc565b6100b16100d4366004610d35565b61030c565b6100ea69152d02c7e14af680000081565b6040519081526020015b60405180910390f35b6100b16103f7565b61010d61040b565b6040516100f49190610d4e565b6100b1610128366004610d35565b610426565b6100b1610564565b6100b1610143366004610d62565b610600565b6100b1610156366004610d8e565b610630565b61016e610169366004610d8e565b610674565b6040805195865260208601949094529284019190915260608301521515608082015260a0016100f4565b60006101a26107cb565b805490915060ff600160401b82041615906001600160401b03166000811580156101c95750825b90506000826001600160401b031660011480156101e55750303b155b9050811580156101f3575080155b156102115760405163f92ee8a960e01b815260040160405180910390fd5b845467ffffffffffffffff19166001178555831561023b57845460ff60401b1916600160401b1785555b60006102456107ef565b6001810188905580546001600160a01b0319166001600160a01b038b1617815590506102744262f14280610dc1565b600282015562093a80600382015561028b88610813565b5083156102d257845460ff60401b19168555604051600181527fc7f505b2f371ae2175ee4913f4499e1f2633a7b5936321eed1cdaeb6115181d29060200160405180910390a15b5050505050505050565b6102e4610824565b60006102ee6107ef565b8054909150610308906001600160a01b0316333085610856565b5050565b60006103166107ef565b3360009081526005820160205260409020549091508211806103475750336000908152600582016020526040902054155b806103555750806002015442105b156103735760405163d9b9141960e01b815260040160405180910390fd5b61037c336108c3565b33600081815260058301602052604090208054849003905581546103ac916001600160a01b03909116908461090f565b3360008181526005830160209081526040918290205491519182527feed138f81c245dc406ccad7e8944f50fe07d934eb1292475406bce7ecd36ccf491015b60405180910390a25050565b6103ff610824565b6104096000610940565b565b60008061041661099c565b546001600160a01b031692915050565b61042e6109c0565b60006104386107ef565b9050806001015482101561045f576040516322313ae960e01b815260040160405180910390fd5b8060020154421180156104815750336000908152600482016020526040902054155b1561049f5760405163d9b9141960e01b815260040160405180910390fd5b806002015442116104d9573360009081526004820160209081526040808320805486019055600284015460068501909252909120556104e2565b6104e2336108c3565b33600081815260058301602052604090208054840190558154610512916001600160a01b03909116903085610856565b3360008181526005830160209081526040918290205491519182527feed138f81c245dc406ccad7e8944f50fe07d934eb1292475406bce7ecd36ccf4910160405180910390a2506105616109f6565b50565b600061056e6107ef565b600381015433600090815260068301602052604090205491925061059191610dc1565b42106105a0576105a0336108c3565b33600081815260078301602052604081208054919055825490916105ce916001600160a01b0316908361090f565b60405181815233907f106f923f993c2149d49b4255ff723acafa1f2d94393f561d3eda32ae348f7241906020016103eb565b610608610824565b60006106126107ef565b805490915061062b906001600160a01b0316848461090f565b505050565b610638610824565b6001600160a01b03811661066b576000604051631e4fbdf760e01b81526004016106629190610d4e565b60405180910390fd5b61056181610940565b6000806000806000806106856107ef565b6001600160a01b0388166000908152600582016020908152604080832054600485019092529091205490975087965090915069152d02c7e14af68000001180156106e857506001600160a01b038716600090815260048201602052604090205485115b1561070b576001600160a01b038716600090815260048201602052604090205494505b6001600160a01b038716600090815260048201602052604090205469152d02c7e14af68000001161073b57600191505b61074487610a07565b6001600160a01b03881660009081526007830160205260409020546107699190610dc1565b6001600160a01b03881660009081526007830160209081526040808320546003860154600687019093529220549296509094506107a591610dc1565b42106107c1576107b487610a07565b6107be9084610dc1565b92505b5091939590929450565b7ff0c57e16840df040f15088dc2f81fe391c3923bec73e23a9662efc9c229c6a0090565b7f81f2b887c4139019972bd6bf530fb5a1ee1f11eb1556b0c344eb0fb217c4120090565b61081b610ae8565b61056181610b0d565b3361082d61040b565b6001600160a01b031614610409573360405163118cdaa760e01b81526004016106629190610d4e565b6040516001600160a01b0384811660248301528381166044830152606482018390526108bd9186918216906323b872dd906084015b604051602081830303815290604052915060e01b6020820180516001600160e01b038381831617835250505050610b15565b50505050565b60006108cd6107ef565b905060006108da83610a07565b6001600160a01b0390931660009081526007830160209081526040808320805490960190955560069093019092525020429055565b6040516001600160a01b0383811660248301526044820183905261062b91859182169063a9059cbb9060640161088b565b600061094a61099c565b80546001600160a01b038481166001600160a01b031983168117845560405193945091169182907f8be0079c531659141344cd1fd0a4f28419497f9722a3daafe3b4186f6b6457e090600090a3505050565b7f9016d09d72d40fdae2fd8ceac6b6234c7706214fd39c1cd1e609a0528c19930090565b60006109ca610b6f565b8054909150600119016109f057604051633ee5aeb560e01b815260040160405180910390fd5b60029055565b6000610a00610b6f565b6001905550565b600080610a126107ef565b6001600160a01b038416600090815260058201602090815260408083205460048501909252909120549192509069152d02c7e14af6800000118015610a7057506001600160a01b038416600090815260048301602052604090205481115b15610a9257506001600160a01b03831660009081526004820160205260409020545b6001600160a01b038416600090815260068301602052604090205462015180906103e8908390610ac29042610dd4565b610acc9190610de7565b610ad69190610dfe565b610ae09190610dfe565b949350505050565b610af0610b93565b61040957604051631afcd79f60e31b815260040160405180910390fd5b610638610ae8565b6000610b2a6001600160a01b03841683610bad565b90508051600014158015610b4f575080806020019051810190610b4d9190610e20565b155b1561062b5782604051635274afe760e01b81526004016106629190610d4e565b7f9b779b17422d0df92223018b32b4d1fa46e071723d6817e2486d003becc55f0090565b6000610b9d6107cb565b54600160401b900460ff16919050565b6060610bbb83836000610bc4565b90505b92915050565b606081471015610be9573060405163cd78605960e01b81526004016106629190610d4e565b600080856001600160a01b03168486604051610c059190610e42565b60006040518083038185875af1925050503d8060008114610c42576040519150601f19603f3d011682016040523d82523d6000602084013e610c47565b606091505b5091509150610c57868383610c63565b925050505b9392505050565b606082610c7857610c7382610cb6565b610c5c565b8151158015610c8f57506001600160a01b0384163b155b15610caf5783604051639996b31560e01b81526004016106629190610d4e565b5080610c5c565b805115610cc65780518082602001fd5b604051630a12f52160e11b815260040160405180910390fd5b6001600160a01b038116811461056157600080fd5b600080600060608486031215610d0957600080fd5b8335610d1481610cdf565b92506020840135610d2481610cdf565b929592945050506040919091013590565b600060208284031215610d4757600080fd5b5035919050565b6001600160a01b0391909116815260200190565b60008060408385031215610d7557600080fd5b8235610d8081610cdf565b946020939093013593505050565b600060208284031215610da057600080fd5b8135610c5c81610cdf565b634e487b7160e01b600052601160045260246000fd5b80820180821115610bbe57610bbe610dab565b81810381811115610bbe57610bbe610dab565b8082028115828204841417610bbe57610bbe610dab565b600082610e1b57634e487b7160e01b600052601260045260246000fd5b500490565b600060208284031215610e3257600080fd5b81518015158114610c5c57600080fd5b6000825160005b81811015610e635760208186018101518583015201610e49565b50600092019182525091905056fea264697066735822122043243b9a4a0bce735ef6a93851107003e4c995ad2c05b536367822a5dab28a0464736f6c63430008180033",
  "devdoc": {
    "errors": {
      "AddressEmptyCode(address)": [
        {
          "details": "There's no code at `target` (it is not a contract)."
        }
      ],
      "AddressInsufficientBalance(address)": [
        {
          "details": "The ETH balance of the account is not enough to perform the operation."
        }
      ],
      "FailedInnerCall()": [
        {
          "details": "A call to an address target failed. The target may have reverted."
        }
      ],
      "InvalidInitialization()": [
        {
          "details": "The contract is already initialized."
        }
      ],
      "NotInitializing()": [
        {
          "details": "The contract is not initializing."
        }
      ],
      "OwnableInvalidOwner(address)": [
        {
          "details": "The owner is not a valid owner account. (eg. `address(0)`)"
        }
      ],
      "OwnableUnauthorizedAccount(address)": [
        {
          "details": "The caller account is not authorized to perform an operation."
        }
      ],
      "ReentrancyGuardReentrantCall()": [
        {
          "details": "Unauthorized reentrant call."
        }
      ],
      "SafeERC20FailedOperation(address)": [
        {
          "details": "An operation with an ERC20 token failed."
        }
      ]
    },
    "events": {
      "Initialized(uint64)": {
        "details": "Triggered when the contract has been initialized or reinitialized."
      }
    },
    "kind": "dev",
    "methods": {
      "owner()": {
        "details": "Returns the address of the current owner."
      },
      "renounceOwnership()": {
        "details": "Leaves the contract without owner. It will not be possible to call `onlyOwner` functions. Can only be called by the current owner. NOTE: Renouncing ownership will leave the contract without an owner, thereby disabling any functionality that is only available to the owner."
      },
      "transferOwnership(address)": {
        "details": "Transfers ownership of the contract to a new account (`newOwner`). Can only be called by the current owner."
      }
    },
    "version": 1
  },
  "userdoc": {
    "kind": "user",
    "methods": {},
    "version": 1
  },
  "storageLayout": {
    "storage": [],
    "types": null
  }
}