{
  "address": "0xEd98ae3315FCC872A77b7a6c3c0d42B74a2919e0",
  "abi": [
    {
      "inputs": [
        {
          "internalType": "address[]",
          "name": "_owners",
          "type": "address[]"
        },
        {
          "internalType": "uint256",
          "name": "_required",
          "type": "uint256"
        }
      ],
      "stateMutability": "nonpayable",
      "type": "constructor"
    },
    {
      "inputs": [
        {
          "internalType": "uint256",
          "name": "",
          "type": "uint256"
        },
        {
          "internalType": "address",
          "name": "",
          "type": "address"
        }
      ],
      "name": "approvals",
      "outputs": [
        {
          "internalType": "bool",
          "name": "",
          "type": "bool"
        }
      ],
      "stateMutability": "view",
      "type": "function"
    },
    {
      "inputs": [
        {
          "internalType": "uint256",
          "name": "_txId",
          "type": "uint256"
        }
      ],
      "name": "approveTransaction",
      "outputs": [],
      "stateMutability": "nonpayable",
      "type": "function"
    },
    {
      "inputs": [
        {
          "internalType": "uint256",
          "name": "_txId",
          "type": "uint256"
        }
      ],
      "name": "executeTransaction",
      "outputs": [],
      "stateMutability": "nonpayable",
      "type": "function"
    },
    {
      "inputs": [
        {
          "internalType": "uint256",
          "name": "_txId",
          "type": "uint256"
        }
      ],
      "name": "getApprovals",
      "outputs": [
        {
          "internalType": "uint256",
          "name": "",
          "type": "uint256"
        }
      ],
      "stateMutability": "view",
      "type": "function"
    },
    {
      "inputs": [],
      "name": "getOwners",
      "outputs": [
        {
          "internalType": "address[]",
          "name": "",
          "type": "address[]"
        }
      ],
      "stateMutability": "view",
      "type": "function"
    },
    {
      "inputs": [
        {
          "internalType": "uint256",
          "name": "_txId",
          "type": "uint256"
        }
      ],
      "name": "getTransaction",
      "outputs": [
        {
          "internalType": "address",
          "name": "token",
          "type": "address"
        },
        {
          "internalType": "address",
          "name": "to",
          "type": "address"
        },
        {
          "internalType": "uint256",
          "name": "value",
          "type": "uint256"
        },
        {
          "internalType": "bool",
          "name": "executed",
          "type": "bool"
        },
        {
          "internalType": "uint256",
          "name": "numApprovals",
          "type": "uint256"
        }
      ],
      "stateMutability": "view",
      "type": "function"
    },
    {
      "inputs": [],
      "name": "getTransactionCount",
      "outputs": [
        {
          "internalType": "uint256",
          "name": "",
          "type": "uint256"
        }
      ],
      "stateMutability": "view",
      "type": "function"
    },
    {
      "inputs": [
        {
          "internalType": "address",
          "name": "",
          "type": "address"
        }
      ],
      "name": "isOwner",
      "outputs": [
        {
          "internalType": "bool",
          "name": "",
          "type": "bool"
        }
      ],
      "stateMutability": "view",
      "type": "function"
    },
    {
      "inputs": [
        {
          "internalType": "uint256",
          "name": "",
          "type": "uint256"
        }
      ],
      "name": "owners",
      "outputs": [
        {
          "internalType": "address",
          "name": "",
          "type": "address"
        }
      ],
      "stateMutability": "view",
      "type": "function"
    },
    {
      "inputs": [],
      "name": "required",
      "outputs": [
        {
          "internalType": "uint256",
          "name": "",
          "type": "uint256"
        }
      ],
      "stateMutability": "view",
      "type": "function"
    },
    {
      "inputs": [
        {
          "internalType": "address",
          "name": "_token",
          "type": "address"
        },
        {
          "internalType": "address",
          "name": "_to",
          "type": "address"
        },
        {
          "internalType": "uint256",
          "name": "_value",
          "type": "uint256"
        }
      ],
      "name": "submitTransaction",
      "outputs": [],
      "stateMutability": "nonpayable",
      "type": "function"
    },
    {
      "inputs": [
        {
          "internalType": "uint256",
          "name": "",
          "type": "uint256"
        }
      ],
      "name": "transactions",
      "outputs": [
        {
          "internalType": "address",
          "name": "token",
          "type": "address"
        },
        {
          "internalType": "address",
          "name": "to",
          "type": "address"
        },
        {
          "internalType": "uint256",
          "name": "value",
          "type": "uint256"
        },
        {
          "internalType": "bool",
          "name": "executed",
          "type": "bool"
        },
        {
          "internalType": "uint256",
          "name": "numApprovals",
          "type": "uint256"
        }
      ],
      "stateMutability": "view",
      "type": "function"
    },
    {
      "stateMutability": "payable",
      "type": "receive"
    }
  ],
  "transactionHash": "0x0c108048b5005b0d1e6a5a69f4493fd1a88f6a71f3ac37e24e5e1b6625fb79fd",
  "args": [
    [
      "0x1442eF218642014363bbBEB9880a7822999CB18a",
      "0xEAF9dCC6D89C528ceb4766F709229b17220c606b"
    ],
    2
  ],
  "numDeployments": 1,
  "solcInputHash": "06d652276678206bf33f1918e5eb0fc9",
  "bytecode": "0x60806040523480156200001157600080fd5b5060405162000f3f38038062000f3f833981016040819052620000349162000271565b60008251116200007d5760405162461bcd60e51b815260206004820152600f60248201526e13dddb995c9cc81c995c5d5a5c9959608a1b60448201526064015b60405180910390fd5b6000811180156200008f575081518111155b620000e95760405162461bcd60e51b8152602060048201526024808201527f496e76616c6964206e756d626572206f6620726571756972656420617070726f60448201526376616c7360e01b606482015260840162000074565b60005b8251811015620002335760008382815181106200010d576200010d6200034b565b6020026020010151905060006001600160a01b0316816001600160a01b0316036200016b5760405162461bcd60e51b815260206004820152600d60248201526c24b73b30b634b21037bbb732b960991b604482015260640162000074565b6001600160a01b03811660009081526001602052604090205460ff1615620001c95760405162461bcd60e51b815260206004820152601060248201526f4f776e6572206e6f7420756e6971756560801b604482015260640162000074565b6001600160a01b031660008181526001602081905260408220805460ff191682179055815480820183559180527f290decd9548b62a8d60345a988386fc84ba6bc95484008f6362f93160ef3e56390910180546001600160a01b03191690921790915501620000ec565b506002555062000361565b634e487b7160e01b600052604160045260246000fd5b80516001600160a01b03811681146200026c57600080fd5b919050565b600080604083850312156200028557600080fd5b82516001600160401b03808211156200029d57600080fd5b818501915085601f830112620002b257600080fd5b8151602082821115620002c957620002c96200023e565b8160051b604051601f19603f83011681018181108682111715620002f157620002f16200023e565b6040529283528183019350848101820192898411156200031057600080fd5b948201945b838610156200033957620003298662000254565b8552948201949382019362000315565b97909101519698969750505050505050565b634e487b7160e01b600052603260045260246000fd5b610bce80620003716000396000f3fe60806040526004361061009b5760003560e01c8063025e7c27146100a7578063242232d1146100e457806327782212146101065780632e7700f0146101265780632f54bf6e1461014557806333ea3dc8146101855780639ace38c2146101da578063a0e67e2b146101fa578063a4e360c81461021c578063ab2850da1461023c578063dc8452cd14610277578063ee22610b1461028d57600080fd5b366100a257005b600080fd5b3480156100b357600080fd5b506100c76100c236600461099d565b6102ad565b6040516001600160a01b0390911681526020015b60405180910390f35b3480156100f057600080fd5b506101046100ff36600461099d565b6102d7565b005b34801561011257600080fd5b506101046101213660046109d2565b61044b565b34801561013257600080fd5b506004545b6040519081526020016100db565b34801561015157600080fd5b50610175610160366004610a0e565b60016020526000908152604090205460ff1681565b60405190151581526020016100db565b34801561019157600080fd5b506101a56101a036600461099d565b6105b3565b604080516001600160a01b0396871681529590941660208601529284019190915215156060830152608082015260a0016100db565b3480156101e657600080fd5b506101a56101f536600461099d565b61061a565b34801561020657600080fd5b5061020f61066a565b6040516100db9190610a30565b34801561022857600080fd5b5061013761023736600461099d565b6106cc565b34801561024857600080fd5b50610175610257366004610a7d565b600360209081526000928352604080842090915290825290205460ff1681565b34801561028357600080fd5b5061013760025481565b34801561029957600080fd5b506101046102a836600461099d565b6106fa565b600081815481106102bd57600080fd5b6000918252602090912001546001600160a01b0316905081565b3360009081526001602052604090205460ff1661030f5760405162461bcd60e51b815260040161030690610aa9565b60405180910390fd5b600454819081106103325760405162461bcd60e51b815260040161030690610acf565b816004818154811061034657610346610b03565b600091825260209091206003600590920201015460ff161561037a5760405162461bcd60e51b815260040161030690610b19565b6000838152600360209081526040808320338452909152902054839060ff16156103e55760405162461bcd60e51b815260206004820152601c60248201527b151c985b9cd858dd1a5bdb88185b1c9958591e48185c1c1c9bdd995960221b6044820152606401610306565b60008481526003602090815260408083203384529091529020805460ff19166001908117909155600480548690811061042057610420610b03565b906000526020600020906005020160040160008282546104409190610b4f565b909155505050505050565b3360009081526001602052604090205460ff1661047a5760405162461bcd60e51b815260040161030690610aa9565b6040805160a0810182526001600160a01b0394851681529284166020840190815290830191825260006060840181815260808501828152600480546001810182559352945160059092027f8a35acfbc15ff81a39ae7d344fd709f28e8600b4aa8c65c6b64bfe7fe36bd19b810180549388166001600160a01b031994851617905592517f8a35acfbc15ff81a39ae7d344fd709f28e8600b4aa8c65c6b64bfe7fe36bd19c840180549190971692169190911790945590517f8a35acfbc15ff81a39ae7d344fd709f28e8600b4aa8c65c6b64bfe7fe36bd19d82015591517f8a35acfbc15ff81a39ae7d344fd709f28e8600b4aa8c65c6b64bfe7fe36bd19e8301805491151560ff19909216919091179055517f8a35acfbc15ff81a39ae7d344fd709f28e8600b4aa8c65c6b64bfe7fe36bd19f90910155565b600080600080600080600487815481106105cf576105cf610b03565b6000918252602090912060059091020180546001820154600283015460038401546004909401546001600160a01b039384169c939092169a50985060ff909216965090945092505050565b6004818154811061062a57600080fd5b6000918252602090912060059091020180546001820154600283015460038401546004909401546001600160a01b039384169550919092169260ff169085565b606060008054806020026020016040519081016040528092919081815260200182805480156106c257602002820191906000526020600020905b81546001600160a01b031681526001909101906020018083116106a4575b5050505050905090565b6000600482815481106106e1576106e1610b03565b9060005260206000209060050201600401549050919050565b3360009081526001602052604090205460ff166107295760405162461bcd60e51b815260040161030690610aa9565b6004548190811061074c5760405162461bcd60e51b815260040161030690610acf565b816004818154811061076057610760610b03565b600091825260209091206003600590920201015460ff16156107945760405162461bcd60e51b815260040161030690610b19565b6000600484815481106107a9576107a9610b03565b906000526020600020906005020190506002548160040154101561080c5760405162461bcd60e51b815260206004820152601a60248201527921b0b73737ba1032bc32b1baba32903a3930b739b0b1ba34b7b760311b6044820152606401610306565b60038101805460ff1916600117905580546001600160a01b03166108cf57600181015460028201546040516000926001600160a01b031691908381818185875af1925050503d806000811461087d576040519150601f19603f3d011682016040523d82523d6000602084013e610882565b606091505b50509050806108c95760405162461bcd60e51b8152602060048201526013602482015272109390881d1c985b9cd9995c8819985a5b1959606a1b6044820152606401610306565b50610997565b80546001820154600283015460405163a9059cbb60e01b81526001600160a01b0392831660048201526024810191909152911690819063a9059cbb906044016020604051808303816000875af115801561092d573d6000803e3d6000fd5b505050506040513d601f19601f820116820180604052508101906109519190610b76565b6109955760405162461bcd60e51b8152602060048201526015602482015274151bdad95b881d1c985b9cd9995c8819985a5b1959605a1b6044820152606401610306565b505b50505050565b6000602082840312156109af57600080fd5b5035919050565b80356001600160a01b03811681146109cd57600080fd5b919050565b6000806000606084860312156109e757600080fd5b6109f0846109b6565b92506109fe602085016109b6565b9150604084013590509250925092565b600060208284031215610a2057600080fd5b610a29826109b6565b9392505050565b6020808252825182820181905260009190848201906040850190845b81811015610a715783516001600160a01b031683529284019291840191600101610a4c565b50909695505050505050565b60008060408385031215610a9057600080fd5b82359150610aa0602084016109b6565b90509250929050565b6020808252600c908201526b2737ba1030b71037bbb732b960a11b604082015260600190565b6020808252601a9082015279151c985b9cd858dd1a5bdb88191bd95cc81b9bdd08195e1a5cdd60321b604082015260600190565b634e487b7160e01b600052603260045260246000fd5b6020808252601c908201527b151c985b9cd858dd1a5bdb88185b1c9958591e48195e1958dd5d195960221b604082015260600190565b80820180821115610b7057634e487b7160e01b600052601160045260246000fd5b92915050565b600060208284031215610b8857600080fd5b81518015158114610a2957600080fdfea26469706673582212204b58796675cb01df6b405c2c7d36c978c386d65a4fb6f9ff07f618c52d8b128564736f6c63430008180033",
  "devdoc": {
    "kind": "dev",
    "methods": {},
    "version": 1
  },
  "userdoc": {
    "kind": "user",
    "methods": {},
    "version": 1
  },
  "storageLayout": {
    "storage": [
      {
        "astId": 21,
        "contract": "contracts/Multisig.sol:MultiSigWallet",
        "label": "owners",
        "offset": 0,
        "slot": "0",
        "type": "t_array(t_address)dyn_storage"
      },
      {
        "astId": 25,
        "contract": "contracts/Multisig.sol:MultiSigWallet",
        "label": "isOwner",
        "offset": 0,
        "slot": "1",
        "type": "t_mapping(t_address,t_bool)"
      },
      {
        "astId": 27,
        "contract": "contracts/Multisig.sol:MultiSigWallet",
        "label": "required",
        "offset": 0,
        "slot": "2",
        "type": "t_uint256"
      },
      {
        "astId": 44,
        "contract": "contracts/Multisig.sol:MultiSigWallet",
        "label": "approvals",
        "offset": 0,
        "slot": "3",
        "type": "t_mapping(t_uint256,t_mapping(t_address,t_bool))"
      },
      {
        "astId": 48,
        "contract": "contracts/Multisig.sol:MultiSigWallet",
        "label": "transactions",
        "offset": 0,
        "slot": "4",
        "type": "t_array(t_struct(Transaction)38_storage)dyn_storage"
      }
    ],
    "types": {
      "t_address": {
        "encoding": "inplace",
        "label": "address",
        "numberOfBytes": "20"
      },
      "t_array(t_address)dyn_storage": {
        "base": "t_address",
        "encoding": "dynamic_array",
        "label": "address[]",
        "numberOfBytes": "32"
      },
      "t_array(t_struct(Transaction)38_storage)dyn_storage": {
        "base": "t_struct(Transaction)38_storage",
        "encoding": "dynamic_array",
        "label": "struct MultiSigWallet.Transaction[]",
        "numberOfBytes": "32"
      },
      "t_bool": {
        "encoding": "inplace",
        "label": "bool",
        "numberOfBytes": "1"
      },
      "t_mapping(t_address,t_bool)": {
        "encoding": "mapping",
        "key": "t_address",
        "label": "mapping(address => bool)",
        "numberOfBytes": "32",
        "value": "t_bool"
      },
      "t_mapping(t_uint256,t_mapping(t_address,t_bool))": {
        "encoding": "mapping",
        "key": "t_uint256",
        "label": "mapping(uint256 => mapping(address => bool))",
        "numberOfBytes": "32",
        "value": "t_mapping(t_address,t_bool)"
      },
      "t_struct(Transaction)38_storage": {
        "encoding": "inplace",
        "label": "struct MultiSigWallet.Transaction",
        "members": [
          {
            "astId": 29,
            "contract": "contracts/Multisig.sol:MultiSigWallet",
            "label": "token",
            "offset": 0,
            "slot": "0",
            "type": "t_address"
          },
          {
            "astId": 31,
            "contract": "contracts/Multisig.sol:MultiSigWallet",
            "label": "to",
            "offset": 0,
            "slot": "1",
            "type": "t_address"
          },
          {
            "astId": 33,
            "contract": "contracts/Multisig.sol:MultiSigWallet",
            "label": "value",
            "offset": 0,
            "slot": "2",
            "type": "t_uint256"
          },
          {
            "astId": 35,
            "contract": "contracts/Multisig.sol:MultiSigWallet",
            "label": "executed",
            "offset": 0,
            "slot": "3",
            "type": "t_bool"
          },
          {
            "astId": 37,
            "contract": "contracts/Multisig.sol:MultiSigWallet",
            "label": "numApprovals",
            "offset": 0,
            "slot": "4",
            "type": "t_uint256"
          }
        ],
        "numberOfBytes": "160"
      },
      "t_uint256": {
        "encoding": "inplace",
        "label": "uint256",
        "numberOfBytes": "32"
      }
    }
  }
}